:020000040800F2
:1000000090040020B50E0008BD0E0008BF0E0008C9
:10001000C10E0008C30E0008C50E00080000000055
:10002000000000000000000000000000C70E0008F3
:10003000C90E000800000000CB0E0008CD0E00081D
:10004000CF0E0008CF0E0008CF0E0008CF0E00081C
:10005000CF0E0008CF0E0008CF0E0008CF0E00080C
:10006000CF0E0008CF0E0008CF0E0008CF0E0008FC
:10007000CF0E0008CF0E0008CF0E0008CF0E0008EC
:10008000CF0E0008CF0E0008CF0E0008CF0E0008DC
:10009000CF0E0008CF0E0008CF0E0008CF0E0008CC
:1000A000CF0E0008CF0E0008CF0E0008CF0E0008BC
:1000B000CF0E0008CF0E0008CF0E0008CF0E0008AC
:1000C000CF0E0008CF0E0008CF0E0008CF0E00089C
:1000D000CF0E0008850E0008CF0E0008CF0E0008D6
:1000E000CF0E0008CF0E0008CF0E0008DFF80CD0AE
:1000F00001F0FAFC004800470101000890040020CC
:10010000A2B000BF00F0AFFB482000F0E7FA4FF4C8
:10011000E13000F06BFE4FF4FA7000F0F9FA00BF26
:10012000FF250EE02A4687A102A801F0EFFC02A8F5
:1001300000F047FE00F034FC012000F0E9FA681EF0
:10014000C5B2002DEEDC84A000F03BFE00F028FCE0
:10015000642000F0DDFA834800F033FE00F020FC5C
:1001600081A000F02EFE00F01BFC642000F0D0FA0D
:1001700085A000F026FE00F013FC642000F0C8FA11
:100180008AA000F01EFE00F00BFC642000F0C0FA14
:1001900092A000F016FE00F003FC642000F0B8FA14
:1001A00097A000F00EFE00F0FBFB642000F0B0FA18
:1001B0009DA000F006FE00F0F3FB642000F0A8FA1A
:1001C000A5A000F0FEFD00F0EBFBA9A000F0F9FDFA
:1001D00000F0E6FBADA000F0F4FD00F0E1FBB2A002
:1001E00000F0EFFD00F0DCFBB5A000F0EAFD00F050
:1001F000D7FB002405E04EF6602000F089FA601C71
:10020000C4B20A2CF7DBB4A000F0DBFD00F0C8FBA1
:10021000C1A000F0D6FD00F0C3FB642000F078FA26
:10022000C5A000F0CEFD00F0BBFB642000F070FA2A
:10023000CAA000F0C6FD00F0B3FB642000F068FA2D
:10024000D0A000F0BEFD00F0ABFB642000F060FA2F
:10025000D5A000F0B6FD00F0A3FB642000F058FA32
:10026000DBA000F0AEFDE5A000F0ABFD00F098FBD8
:10027000E6A000F0A6FD00F093FBEAA000F0A1FDCF
:1002800000F08EFBEEA000F09CFD00F089FB86A044
:1002900000F097FD00F084FB89A000F092FD00F0D3
:1002A0007FFB002405E041F2707000F031FA601C21
:1002B000C4B20A2CF7DBE94800F083FD00F070FBC4
:1002C000E74800F07EFD00F06BFB002405E041F202
:1002D000707000F01DFA601CC4B20A2CF7DBE14814
:1002E00000F06FFD00F05CFB4FF4FA7000F010FAC4
:1002F000DDA000F066FD00F053FBE4A000F061FD1E
:1003000000F0DEFB00F04CFBE448C078E34989785C
:10031000CDE90010E14843780278E1A102A801F09C
:10032000F5FB02A800F04DFD00F03AFB002405E0CB
:1003300041F2707000F0ECF9601CC4B2032CBFF6FF
:10034000EFAEF5E7434C52283135293B424C282586
:100350003264293B0D0A0000424C283130293B0D04
:100360000A0000005C1F00084443333228302C3060
:100370002C27CFB5CDB3D5FDD4DABFAABBFA272C35
:1003800031293B0D0A0000004443323428302C331D
:10039000322C27C4A3D7E9D0CDBAC54A4332322D77
:1003A000563032272C32293B0D0A00005342432895
:1003B00034293B444356323428302C35362C2732EE
:1003C0002E32B4E731373658323230B7D6B1E6C2C2
:1003D000CA272C30293B0D0A000000004443313667
:1003E00028302C38302C27D6A7B3D6BAE1CAFAC6A3
:1003F000C1C7D0BBBB272C33293B0D0A000000002E
:100400004443313628302C39362C27C4DCCAB5CFCA
:10041000D6CDBCB2E3B5FEBCD3B9A6C4DC272C3123
:10042000293B0D0A000000005342432830293B4479
:100430004356313628302C3131322C27B1B3B9E252
:10044000C1C1B6C8BFC9D2D4B5F7BDDA272C313582
:10045000293B0D0A00000000504C28302C31323866
:100460002C3135302C3132382C31293B0D0A00002B
:10047000424F5846283134302C3134302C3136300C
:100480002C3136302C33293B0D0A0000424F5828BE
:100490003135302C3135302C3137302C3137302C50
:1004A00031293B0D0A000000434952462837302CC1
:1004B0003135302C31352C31293B0D0A000000003C
:1004C000434952462838302C3136302C31352C32C5
:1004D000293B0D0A00000000534243283135293BD7
:1004E0004449522830293B4653494D472832303938
:1004F000373135322C302C302C3137362C323230EB
:100500002C30293B534243283130293B444952285F
:1005100030293B0D0A0000004443313628302C308E
:100520002C27CFB5CDB3D5FDD4DABFAABBFA272C83
:1005300031293B0D0A0000004443313628302C316C
:10054000362C27C4A3D7E9D0CDBAC54A4332322DC1
:10055000563032272C32293B0D0A000044433136F5
:1005600028302C33322C27322E32B4E7313736582C
:10057000323230B7D6B1E6C2CA272C34293B0D0A35
:10058000000000004443313628302C34382C27D664
:10059000A7B3D6BAE1CAFAC6C1C7D0BBBB272C33B2
:1005A000293B0D0A000000004443313628302C3628
:1005B000342C27C4DCCAB5CFD6CDBCB2E3B5FEBC63
:1005C000D3B9A6C4DC272C31293B0D0A000000005A
:1005D000534243283135293B444356313628302C89
:1005E00038302C27B1B3B9E2C1C1B6C8BFC9D2D423
:1005F000B5F7BDDA272C30293B0D0A0050532831BE
:10060000302C31302C3134293B0D0A00504C28302D
:100610002C3130302C3135302C3130302C31293BDD
:100620000D0A0000424F5846283133302C31333008
:100630002C3135302C3135302C33293B0D0A00005C
:10064000424F58283134302C3134302C3136302C54
:100650003136302C31293B0D0A000000E81F00081C
:10066000A01E0008A41F00085055545F5641522890
:100670003131302C34342C35352C36362C37392961
:100680003B4449522831293B0D0A00004745545F3D
:1006900056415228313130293B0D0A0021000020FB
:1006A0005342432831293B4449522831293B444392
:1006B00056313628302C35382C27B6C1B3F6666C47
:1006C000617368B5C4D6B53A2564202564202564D5
:1006D000202564272C3135293B0D0A0010B504462E
:1006E0006FF0040000F047FCE11704EB5171C1F317
:1006F000C701234A11701046007800EB4001C1EB9E
:10070000C0104FF6FF7101EAC0001E49088010BDFD
:1007100001461C4A12884A434FF0E0235A610022E6
:100720009A6101221A6100BF4FF0E022106900F0C7
:1007300001021AB100F48032002AF5D000224FF0F5
:10074000E0231A619A61704701460D4A12784A43C4
:100750004FF0E0235A6100229A6101221A6100BF22
:100760004FF0E022106900F001021AB100F480326B
:10077000002AF5D000224FF0E0231A619A617047F9
:1007800000000020020000200CB500200190009025
:100790006C48006840F480306A49086000BF6948CE
:1007A000006800F4003000900198401C019000980F
:1007B00018B90198B0F5A06FF1D16248006800F453
:1007C000003010B10120009001E00020009000985E
:1007D000012843D15C48006840F010005A49086085
:1007E0000846006820F0030008600846006840F0F2
:1007F0000200086053484068524948600846406813
:1008000048600846406840F4806048600846406898
:1008100020F47C1048600846406840F4E8104860C6
:100820000846006840F08070086000BF45480068D6
:1008300000F000700028F9D04248406820F0030022
:10084000404948600846406840F00200486000BFE8
:100850003C48406800F00C000828F9D10CBD10B5E8
:10086000FFF792FF10BD10B53648006840F0010058
:1008700034490860084640683449084031494860B6
:1008800008460068324908402E490860084600685A
:1008900020F4802008600846406820F4FE0048608C
:1008A0004FF41F008860FFF7DAFF4FF0006029491E
:1008B000086010BD10B5002100200022214B5B68AC
:1008C00003F00C0121B1042906D0082928D107E042
:1008D000214B224C236027E01F4B204C236023E058
:1008E000184B5B6803F47010164B5B6803F480329E
:1008F000022303EB904022B9194B4343174C23606A
:100900000DE0104B5B6803F4003323B1144B4343F9
:10091000124C236003E0104B4343104C236003E070
:100920000D4B0E4C236000BF00BF064B5B68C3F34A
:1009300003130C4CE15C094B1B68CB40074C236054
:1009400010BD000000100240002002400000FFF82F
:10095000FFFFF6FE08ED00E000127A000400002020
:1009600000093D0008000020014600BF704700BF9D
:10097000F74A128802F04002002AF9D0C2B2F44BC2
:100980001B1D1A80704700BFF148008800F020004E
:100990000028F9D0EE48001D0088C0F30800704719
:1009A00004E0EC4800780F2800D100E0F9E700BF30
:1009B0000020E8490870704700BFE74909785629C8
:1009C000FBD1E54949784129F7D1E3498978522992
:1009D000F3D10021E04A1170517091701146C9782D
:1009E00001701146097941701146497981701146AB
:1009F0008979C1700021D94A1170D94A117000BF9C
:100A000000BF70477B2809D10021D64A117001210F
:100A1000D54A11700021D54A117050E07D2806D1C9
:100A20000021D14A11700121D14A117047E03A28C2
:100A300001D02C2808D1CD490978491CCB4A117026
:100A40000021C84A11703AE0C7490978012912D13A
:100A5000C4490978032908DAC449097801EB41013E
:100A6000C44A1144BF4A12788854BE490978491CC7
:100A7000BC4A117023E04F2803D10121B54A1170FF
:100A80001DE04B2807D1B349097801F00D01891CFD
:100A9000B04A117013E00D2807D1AE49097801F072
:100AA0000B01091DAB4A117009E00A2807D1A949B9
:100AB000097801F0070141F00801A64A117070475A
:100AC00010B519E1AA4800780128FAD1A9480078A0
:100AD0005628F6D1A74840784128F2D1A548807819
:100AE0005228EED1A3484079302816DBA14840793E
:100AF000392812DC9F48C0783038642358439D4B16
:100B00001B79303B03EB830300EB430399484079A7
:100B100030381844984B187021E0964800793028F6
:100B200010DB9448007939280CDC92480079303881
:100B3000904BDB78303B03EB830300EB43008E4BA1
:100B400018700CE08B48C078302808DB8948C078E2
:100B5000392804DC8748C0783038874B18708548BE
:100B6000007A302816DB8348007A392812DC814865
:100B700080793038642358437E4BDB79303B03EB7C
:100B8000830300EB43037B48007A303818447A4BE8
:100B9000587021E07748C079302810DB7548C0795B
:100BA00039280CDC7348C0793038724B9B79303B64
:100BB00003EB830300EB43006F4B58700CE06D4870
:100BC0008079302808DB6B488079392804DC694853
:100BD00080793038684B58706648C07A302816DB08
:100BE0006448C07A392812DC6248407A303864237D
:100BF0005843604B9B7A303B03EB830300EB43038A
:100C00005C48C07A303818445B4B987021E05948F2
:100C1000807A302810DB5748807A39280CDC554818
:100C2000807A3038534B5B7A303B03EB830300EB25
:100C30004300514B98700CE04E48407A302808DB56
:100C40004C48407A392804DC4A48407A30384A4BCC
:100C500098704848807B302816DB4648807B3928CE
:100C600012DC4448007B303864235843414B5B7BA3
:100C7000303B03EB830300EB43033E48807B30387B
:100C800018443D4BD87021E03A48407B302810DBB7
:100C90003848407B39280CDC3648407B3038354BAF
:100CA0001B7B303B03EB830300EB4300324BD870DC
:100CB0000CE03048007B302808DB2E48007B3928C8
:100CC00004DC2C48007B30382B4BD87000210DE021
:100CD000002207E0002001EB4103264C23449854F6
:100CE000501CC2B2032AF5DB481CC1B20529EFDB58
:100CF00000201F4B187000E0E4E600BF10BD30B5C7
:100D000003465BE01A480078012857D1194800785B
:100D1000552833D11748407850282FD1012018701A
:100D20000020134C207000210EE0002207E000207C
:100D300001EB41040F4D2C44A054501CC2B2032AB5
:100D4000F5DB481CC0B201460529EEDB37E00000A8
:100D50000038014020000020260000202A0000204A
:100D60002B0000201C0000201E0000201D00002081
:100D70001F0000204000002021000020494800788A
:100D800044281BD1474840784E2817D100201870BE
:100D9000454C207000210EE0002207E0002001EB0E
:100DA0004104404D2C44A054501CC2B2032AF5DB30
:100DB000481CC0B201460529EEDB00E0A2E700BFF7
:100DC00030BD70B5044600250FE0207860B1217871
:100DD000364800F0ABFD00BF8021344800F014FE1F
:100DE0000028F9D0641C00E070BDEEE710B586B0B5
:100DF0000446012144F2050000F0F8FB4FF40070B6
:100E0000ADF8140003208DF8160018208DF8170097
:100E100005A9274800F02EF94FF48060ADF81400C2
:100E200004208DF8170005A9214800F023F925209A
:100E30008DF8000003208DF801008DF802000120DC
:100E40008DF80300684600F04CF801940020ADF8DE
:100E50000800ADF80A00ADF80C00ADF810000C2049
:100E6000ADF80E0001A9114800F067FC012240F224
:100E700025510E4800F0F9FC01210C4800F0E9FC76
:100E800006B010BD10B5012440F22551074800F00E
:100E9000D1FD30B1054800F04DFDC4B22046FFF74A
:100EA000B1FD10BD400000201F00002000380140AF
:100EB000000801400648804706480047FEE7FEE775
:100EC000FEE7FEE7FEE7FEE7FEE7FEE7FEE7FEE7FA
:100ED00067080008ED00000831490143314A1160FC
:100EE000704770B5002100230F22C47804B32D4C45
:100EF000246804F4E064C4F5E064210AC1F1040349
:100F0000CA40447804FA03F184781440214309016B
:100F1000254C0678A155047804F01F050124AC4047
:100F200005786D11AD0005F1E025C5F8004109E037
:100F3000047804F01F050124AC401C4D067876119E
:100F400045F8264070BD1A4A0A400243154B1B1F44
:100F50001A60704739B1134A121D12680243114BCF
:100F60001B1D1A6006E00F4A121D126882430D4BCA
:100F70001B1D1A607047042808D14FF0E021096951
:100F800041F004014FF0E022116107E04FF0E02151
:100F9000096921F004014FF0E0221161704700005F
:100FA0000000FA050CED00E000E400E080E100E064
:100FB00080FFFF1F10B50446CC48844208D10121B0
:100FC000042000F02DFB0021042000F029FB46E066
:100FD000C748844208D10121082000F021FB0021EC
:100FE000082000F01DFB3AE0C248844208D10121EC
:100FF000102000F015FB0021102000F011FB2EE066
:10100000BD48844208D10121202000F009FB0021C5
:10101000202000F005FB22E0B848844208D10121DD
:10102000402000F0FDFA0021402000F0F9FA16E01F
:10103000B348844208D10121802000F0F1FA002158
:10104000802000F0EDFA0AE0AE48844207D1012189
:10105000801500F0E5FA0021A01500F0E1FA10BDBE
:1010600010B50121084600F0DBFA0021012000F054
:10107000D7FA10BD2DE9F0410246002500260020D8
:1010800000230024002791F803C00CF00F0591F80D
:1010900003C00CF0100CBCF1000F03D091F802C09B
:1010A0004CEA050591F800C0BCF1000F31D014687E
:1010B00000202BE04FF0010C0CFA00F3B1F800C057
:1010C0000CEA03069E4220D183004FF00F0C0CFA6D
:1010D00003F7BC4305FA03FC4CEA040491F803C08F
:1010E000BCF1280F06D14FF0010C0CFA00FCC2F83D
:1010F00014C00AE091F803C0BCF1480F05D14FF0CD
:10110000010C0CFA00FCC2F810C0401C0828D1D316
:101110001460B1F800C0BCF1FF0F34DD546800204A
:101120002EE000F1080C4FF0010808FA0CF3B1F8BA
:1011300000C00CEA03069E4221D183004FF00F0C41
:101140000CFA03F7BC4305FA03FC4CEA040491F8DB
:1011500003C0BCF1280F05D100F1080C08FA0CF807
:10116000C2F8148091F803C0BCF1480F07D100F118
:10117000080C4FF0010808FA0CF8C2F81080401C67
:101180000828CED35460BDE8F0814FF6FF7101808E
:10119000022181700421C1707047024600209368CB
:1011A0000B400BB1012000E0002070470146886829
:1011B00080B2704702460020D3680B400BB101207B
:1011C00000E0002070470146C86880B270470161A6
:1011D0007047416170470AB1016100E041617047A9
:1011E000C16070474FF480320A438261816182613D
:1011F00082698269704702460020434B18684FF6A7
:101200008073184040EA021008433F4B1860704753
:101210003E49C8617047F0B50A460023002400210A
:10122000002500F00046B6F1004F02D1364EF169BC
:1012300001E0354E7168C0F3034583B200F44016F7
:10124000B6F5401F08D121F070612F4E766826F068
:1012500070662D4F7E6012E000F48016B6F5801F98
:1012600006D1032606FA05F4A14341F0706106E0B9
:10127000460D360103FA06F6B14341F0706122B122
:10128000460D360103FA06F6314300F00046B6F18A
:10129000004F02D11C4EF16101E01B4E7160F0BDA8
:1012A00030B500228B071C0F0F2303FA04F2164BF4
:1012B00008338C1053F824309343134C08348D10AA
:1012C00044F8253023468C1053F824308C07240F23
:1012D00000FA04F423430C4C08348D1044F82530F4
:1012E00030BD0A49DC310860704700000008014049
:1012F000000C0140001001400014014000180140A2
:10130000001C01400020014000000140000020427C
:10131000DF48006840F00100DD4908600846406889
:10132000DC490840DA49486008460068DA49084064
:10133000D74908600846006820F480200860084605
:10134000406820F4FE0048604FF41F00886070473A
:10135000CF49096821F48031CD4A116011460968EE
:1013600021F480211160B0F5803F03D0B0F5802FCB
:101370000ED106E0C649096841F48031C44A1160C3
:1013800007E0C349096841F4A021C14A116000E0A7
:1013900000BF00BF704710B50146002200230020A7
:1013A0004A11012A02D1BA4C236806E0022A02D16E
:1013B000B74C236A01E0B64C636A01F01F020124B6
:1013C00094401C400CB1012000E0002010BD38B555
:1013D000002000900024002500BF3120FFF7DBFF34
:1013E00005460098401C00900098B0F5A06F01D011
:1013F000002DF2D03120FFF7CEFF08B1012400E02C
:101400000024204638BD01460020A14A106820F083
:10141000F80040EAC10010607047A04908607047BA
:10142000024600209A4B586820F47C1042EA0103DF
:101430001843974B586070479849086670470146B3
:101440000020934A506820F0030008435060704722
:101450008F48406800F00C007047014600208C4A1D
:10146000506820F0F00008435060704701460020AB
:10147000874A506820F4E060084350607047014696
:101480000020834A506820F4605040EAC100506058
:10149000704729B17E4A527A02437D4B5A7204E06A
:1014A0007B4A527A82437A4B5A7270477B49D831D1
:1014B0000860704701460020754A506820F440409B
:1014C0000843506070470021714A20321170704A01
:1014D00082F82010012802D004280AD104E001215A
:1014E0006B4A2032117005E00521694A20321170E3
:1014F00000E000BF00BF7047694908607047644959
:10150000096A0143624A11627047654944390860BB
:10151000704730B500210022002400235C4D6D6827
:1015200005F00C0121B1042905D0082923D105E0DB
:101530005C4D056022E05B4D05601FE0544D6D6819
:1015400005F47012524D6D6805F48034022505EBE8
:1015500092421CB9544D554305600BE04C4D6D68EB
:1015600005F400351DB1504D5543056002E04D4D69
:101570005543056002E04B4D056000BF00BF444D80
:101580006D6805F0F0010909484D6B5C0568DD40A8
:1015900045603F4D6D6805F4E061090A434D6B5CA1
:1015A0004568DD4085603A4D6D6805F46051C90AB3
:1015B0003E4D6B5C4568DD40C560354D6D6805F49A
:1015C0004041890B3A4D6B5CC568B5FBF3F505618D
:1015D00030BD29B12E4A526902432D4B5A6104E0B5
:1015E0002B4A526982432A4B5A61704729B1284AD3
:1015F00092690243264B9A6104E0254A926982432C
:10160000234B9A61704729B1214AD2690243204B8A
:10161000DA6104E01E4AD26982431D4BDA617047E9
:1016200029B11B4AD2680243194BDA6004E0184A18
:10163000D2688243164BDA60704729B1144A1269A6
:101640000243134B1A6104E0114A12698243104BA2
:101650001A61704712494039086070470F49C864E1
:1016600070470B49C87170470948406A40F0807064
:1016700007494862704701460020054A92680A40BF
:101680000AB1012000E000207047014988727047CC
:10169000001002400000FFF8FFFFF6FE000042428B
:1016A0008004424200127A0000093D002C00002014
:1016B0003C00002010B50446FB48844209D10121BA
:1016C0008803FFF7ADFF00214FF48040FFF7A8FF2C
:1016D00032E0F648844209D101214804FFF7ADFF0A
:1016E00000214FF40030FFF7A8FF25E0F0488442C6
:1016F00009D101218804FFF7A0FF00214FF48020C9
:10170000FFF79BFF18E0EB48844209D10121C80490
:10171000FFF793FF00214FF40020FFF78EFF0BE04F
:10172000E548844208D101210805FFF786FF002122
:101730004FF48010FFF781FF10BD2DE9F04786B010
:1017400005460E460024A24600BFA1460027B089E8
:1017500000B100BF2F462C8A4CF6FF700440F08881
:1017600004432C82AC894EF6F3100440B0883189D2
:101770000843718908430443AC81AC8A4FF6FF40AB
:101780000440B0890443AC8201A8FFF7C2FEC648FA
:10179000874202D1DDF810A001E0DDF80CA0A88995
:1017A00000F4004040B10AEBCA0000EB0A103168B7
:1017B0004900B0FBF1F807E00AEBCA0000EB0A10A1
:1017C00031688900B0FBF1F86420B8FBF0F0040147
:1017D0002009642101FB1089A88900F4004040B170
:1017E000322000EBC900B0FBF1F000F00700044329
:1017F00008E0322000EB09106421B0FBF1F000F0AA
:101800000F0004432C8106B0BDE8F0874FF4165159
:10181000016000218180C18001810C214181002172
:101820008181704710B502460020108A4FF2FF03F5
:1018300018400B884C8823438C882343CC8823434F
:101840001843108210BD0021018041808180C18039
:10185000704721B1828942F40052828104E082897A
:101860004DF6FF731A4082817047F0B5034600249D
:1018700000260025002040F66A17B94200D100BFBB
:101880001846C1F3421401F01F06012707FA06F5B6
:10189000012C01D10C3004E0022C01D1103000E009
:1018A00014301AB107682F43076002E00768AF439E
:1018B0000760F0BD1AB1838A0B43838202E0838AFA
:1018C0008B4383827047028A4FF6F0731A4002827C
:1018D000028A0A430282704782894FF2FF731A40DC
:1018E000828182890A438281704721B1828942F0D4
:1018F0000202828104E082894FF6FD731A408281E0
:101900007047028A4FF6DF731A400282028A0A4346
:101910000282704721B1028A42F48042028204E0CE
:10192000028A4BF6FF731A4002827047C1F3080225
:101930008280704701468888C0F30800704781891B
:1019400041F0010181817047028BD2B20283028B88
:1019500042EA012202837047028B02F47F42028333
:10196000028B0A430283704721B1828A42F020022F
:10197000828204E0828A4FF6DF731A4082827047C7
:1019800021B1828A42F01002828204E0828A4FF6FC
:10199000EF731A408282704721B1828A42F00802B6
:1019A000828204E0828A4FF6F7731A40828270477F
:1019B00021B1828942F40042828103E08289C2F32C
:1019C0000E028281704721B1828A42F400628282D3
:1019D00004E0828A4FF2FF731A4082827047828A43
:1019E0004FF6FB731A408282828A0A4382827047D2
:1019F00021B1828A42F00202828204E0828A4FF69A
:101A0000FD731A408282704702460020B1F5007FC4
:101A100000D100BF13880B400BB1012000E0002073
:101A2000704701F40072B2F5007F00D100BFCA43D5
:101A30000280704770B50246002400230025002074
:101A400040F66A16B14200D100BFC1F3421501F061
:101A50001F03012606FA03F3012D02D196893340B4
:101A600006E0022D02D1168A334001E0968A334007
:101A70000C12012606FA04F41688344013B10CB196
:101A8000012000E0002070BD10B50022002340F6C8
:101A90006A14A14200D100BF0A1201249440A3B2EB
:101AA000DC43048010BD00000038014000440040C9
:101AB00000480040004C00400050004030B50B464C
:101AC000014600202022012409E021FA02F59D426E
:101AD00005D303FA02F5491B04FA02F52844151E42
:101AE000A2F10102F1DC30BD064C074D06E0E068D2
:101AF00040F0010394E8070098471034AC42F6D355
:101B0000FEF7F8FAB4200008D42000080FB4084B00
:101B100010B504A902AA039800F01CF8044602A913
:101B2000002000F0B8F9204610BC5DF814FB00005E
:101B3000971E000802E008C8121F08C1002AFAD147
:101B400070477047002001E001C1121F002AFBD13D
:101B5000704700002DE9FF4F8BB0884605460026F0
:101B600006E025280BD0DDE90D1290476D1C761C90
:101B700028780028F5D10FB03046BDE8F08F00245A
:101B8000A146A2460122AE4900E0044315F8013FF8
:101B9000203B02FA03F00842F7D128782A2810D017
:101BA0006FF02F022878A0F13001092915D809EB30
:101BB000890102EB410144F0020400EB01096D1CB4
:101BC000F0E758F8041B5FEA010903D544F4005418
:101BD000C9F1000944F002046D1C28782E2817D1A1
:101BE00015F8010F44F004042A280ED06FF02F02DC
:101BF0002878A0F1300109290AD80AEB8A0102EB02
:101C0000410100EB010A6D1CF2E758F804AB6D1CB2
:101C100028786C280FD006DC4C2817D068280DD007
:101C20006A2814D104E0742810D07A280FD10DE06E
:101C300044F400140AE044F4801401E044F4401435
:101C40006978814202D104F580146D1C6D1C2878DE
:101C5000692865D006DC00288DD0632827D0642849
:101C600006D15DE06E2808D073282AD0752877D079
:101C7000DDE90D129047761CE0E0C4F30250022823
:101C800009D003280DD0D8F8001004280DD00E601C
:101C900008F10408D2E0D8F80010F217C1E9006298
:101CA000F6E7D8F800100E80F2E70E70F0E718F8AB
:101CB000041B8DF8001000208DF80100EB46012078
:101CC00003E058F804BB4FF0FF3061074FF0000706
:101CD00001D40AE07F1C57450DDA8742FADB1BF876
:101CE00007100029F6D106E07F1C8742FCDB1BF8B9
:101CF00007100029F8D1DDE90D23A9EB0700814683
:101D0000214600F0B1F83044C61904E0DDE90D12B7
:101D10001BF8010B90477F1EF8D22146484688E009
:101D200058F8040BC4F302514FF00A0B032900D1F9
:101D300000B2042900D140B2002802DA40422D212D
:101D400002E0210505D52B218DF82410012104E0A6
:101D500006E0E10710D02021F6E708AF089113E074
:101D600058F8040BC4F302514FF00A0B032900D1B9
:101D700080B2042900D1C0B20021EEE75946FFF736
:101D80009DFE303107F8011D0028F7D1ADEB0700AB
:101D900000F1200B600702D524F4803401E04FF0FD
:101DA000010ADA4502DDAAEB0B0000E000208246C2
:101DB00000EB0B0108980144A9EB01000A90E00335
:101DC00006D4DDE90D2321460A9800F04DF80644BB
:101DD0004FF0000908E009A911F80900DDE90D122A
:101DE000904709F10109761C08998945F3DBE00366
:101DF0000CD5DDE90D2321460A9800F035F806449C
:101E000004E0DDE90D1230209047761CBAF10001A4
:101E1000AAF1010AF5DC05E0DDE90D1217F8010B66
:101E20009047761CBBF10001ABF1010BF4DC0A9882
:101E30002146DDE90D2300F005F806446D1C97E608
:101E4000092801002DE9F041044600251E461746E9
:101E5000880404D405E039462020B0476D1C641E78
:101E6000F9D52846BDE8F0812DE9F041044600256A
:101E70001E469046C80301D5302700E0202788047D
:101E800004D505E041463846B0476D1C641EF9D5BF
:101E90002846BDE8F0810A68531C0B60107070473B
:101EA00042544E2835382C34302C36302C32342CD9
:101EB00027203236A1E343272C302C31352C313505
:101EC0002C30293B42544E2835382C37322C3630B2
:101ED0002C32342C27203236A1E343272C302C31EE
:101EE000352C31352C30293B42544E2835382C3195
:101EF00031322C36302C32342C27203236A1E343B9
:101F0000272C302C31352C31352C30293B42544E86
:101F10002835382C3135322C36302C32342C2720D1
:101F20003236A1E343272C302C31352C31352C307F
:101F3000293B42544E2835382C3139322C36302C3E
:101F400032342C27203236A1E343272C302C313574
:101F50002C31352C30293B0D0A000000434C52280F
:101F600030293B534243283135293B4449522831DB
:101F7000293B4653494D4728323137343539322CC5
:101F8000302C302C3232302C3137362C30293B4437
:101F900049522831293B534243283130293B0D0A0D
:101FA00000000000434C52283135293B4449522857
:101FB00031293B5342432831293B444331362830B1
:101FC0002C32302C27D0B4C8EB666C617368B5C472
:101FD000D6B53A3434203535203636203739272CDB
:101FE00031293B0D0A000000434C522830293B4464
:101FF000435632342831302C31302C2742544EB2E3
:10200000E2CAD4A3BA272C30293B42544E2831309F
:102010002C34302C34382C32342C27CEC2B6C8277E
:102020002C302C312C312C34293B42544E28313069
:102030002C37322C34382C32342C27CEC2B6C82759
:102040002C312C312C312C34293B42544E28313048
:102050002C3131322C34382C32342C27CEC2B6C835
:10206000272C322C312C312C34293B42544E283130
:10207000302C3135322C34382C32342C27CEC2B6A9
:10208000C8272C342C312C312C34293B42544E2877
:1020900031302C3139322C34382C32342C27CEC20A
:1020A000B6C8272C31322C332C312C34293B0D0A65
:1020B00000000000D42000080000002040000000C4
:1020C000341B0008142100084000002050040000C8
:1020D000441B00080000000000A24A0400000000A9
:1020E00000000000010203040607080900000000C8
:1020F00000000000000000000000000000000000E0
:10210000000000000102030401020304060708099D
:0421100002040608B7
:04000005080000ED02
:00000001FF
