:1000260030300030310030320030330030340030B0
:100036003500303600303700303800303900313086
:1000460000313100313200313300313400313500B6
:100056003136003137003138003139003230003264
:10006600310032320032330032340032350032365B
:100076000032370032380032390033300033310075
:100086003332003333003334003335003336003334
:10009600370033380033390034300034310034321D
:1000A600003433003434003435003436003437003D
:1000B60034380034390035300035310035320035FA
:1000C60033003534003535003536003537003538E0
:1000D600003539003630003631003632003633000E
:1000E60036340036350036360036370036380036B8
:1000F60039003730003731003732003733003734B4
:1001060000373500373600373700373800373900C3
:10011600383000383100383200383300383400388F
:10012600350038360038370038380038390039306D
:10013600003931003932003933003934003935009D
:100146003936003937003938003939003130300056
:10015600313031003130320031303300313034004B
:10016600313035003130360031303700313038002B
:100176003130390031313000313131003131320026
:10018600313133003131340031313500313136000F
:1001960031313700313138003131390031323000F8
:1001A60031323100313232003132330031323400F3
:1001B60031323500313236003132370031323800D3
:1001C60031323900313330003133310031333200CE
:1001D60031333300313334003133350031333600B7
:1001E60031333700313338003133390031343000A0
:1001F600313431003134320031343300313434009B
:10020600313435003134360031343700313438007A
:100216003134390031353000313531003135320075
:10022600313533003135340031353500313536005E
:100236003135370031353800313539003136300047
:100246003136310031363200313633003136340042
:100256003136350031363600313637003136380022
:10026600313639003137300031373100313732001D
:100276003137330031373400313735003137360006
:1002860031373700313738003137390031383000EF
:1002960031383100313832003138330031383400EA
:1002A60031383500313836003138370031383800CA
:1002B60031383900313930003139310031393200C5
:1002C60031393300313934003139350031393600AE
:1002D60031393700313938003139390032303000A0
:1002E60032303100323032003230330032303400B6
:1002F6003230350032303600323037003230380096
:100306003230390032313000323131003231320090
:100316003231330032313400323135003231360079
:100326003231370032313800323139003232300062
:10033600323231003232320032323300323234005D
:10034600323235003232360032323700323238003D
:100356003232390032333000323331003233320038
:100366003233330032333400323335003233360021
:10037600323337003233380032333900323430000A
:100386003234310032343200323433003234340005
:1003960032343500323436003234370032343800E5
:1003A60032343900323530003235310032353200E0
:1003B600323533003235340032353500434C52285D
:1003C60031293B44435632342831302C31302C27E6
:1003D600C9D0CAD3BDE7BFC6BCBCD3D0CFDEB9AB8C
:1003E600CBBE272C33293B0D0A0044435633322813
:1003F6002532642C2532642C272573272C33293B80
:100406000D0A0000000000000000000000000000CF
:1004160000000000000000000000000000000000D6
:1004260000000000000000000000000000000000C6
:1004360000000000000000000000000000000000B6
:1004460000000000000000000000000000000000A6
:100456000000000000000000000000000000000096
:100466000000000000000000000000000000000086
:100476000000000000000000000000000000000076
:0304860000000073
:1007EE0063000005FF0026FF0029FF002CFF002FED
:1007FE00FF0032FF0035FF0038FF003BFF003EFFD9
:10080E000041FF0044FF0047FF004AFF004DFF007C
:10081E0050FF0053FF0056FF0059FF005CFF005FC2
:10082E00FF0062FF0065FF0068FF006BFF006EFFB8
:10083E000071FF0074FF0077FF007AFF007DFF005C
:10084E0080FF0083FF0086FF0089FF008CFF008F72
:10085E00FF0092FF0095FF0098FF009BFF009EFF98
:10086E0000A1FF00A4FF00A7FF00AAFF00ADFF003C
:10087E00B0FF00B3FF00B6FF00B9FF00BCFF00BF22
:10088E00FF00C2FF00C5FF00C8FF00CBFF00CEFF78
:10089E0000D1FF00D4FF00D7FF00DAFF00DDFF001C
:1008AE00E0FF00E3FF00E6FF00E9FF00ECFF00EFD2
:1008BE00FF00F2FF00F5FF00F8FF00FBFF00FEFF58
:1008CE000101FF0104FF0107FF010AFF010DFF01F6
:1008DE0010FF0113FF0116FF0119FF011CFF011F7D
:1008EE00FF0122FF0125FF0128FF012BFF012EFF33
:1008FE000131FF0134FF0137FF013AFF013DFF01D6
:10090E0040FF0143FF0146FF0149FF014CFF014F2C
:10091E00FF0152FF0156FF015AFF015EFF0162FF08
:10092E000166FF016AFF016EFF0172FF0176FF0192
:10093E007AFF017EFF0182FF0186FF018AFF018E91
:10094E00FF0192FF0196FF019AFF019EFF01A2FF98
:10095E0001A6FF01AAFF01AEFF01B2FF01B6FF0122
:10096E00BAFF01BEFF01C2FF01C6FF01CAFF01CEE1
:10097E00FF01D2FF01D6FF01DAFF01DEFF01E2FF28
:10098E0001E6FF01EAFF01EEFF01F2FF01F6FF01B2
:10099E00FAFF01FEFF0202FF0206FF020AFF020E2D
:1009AE00FF0212FF0216FF021AFF021EFF0222FFB3
:1009BE000226FF022AFF022EFF0232FF0236FF023C
:1009CE003AFF023EFF0242FF0246FF024AFF024E7C
:1009DE00FF0252FF0256FF025AFF025EFF0262FF43
:1009EE000266FF026AFF026EFF0272FF0276FF02CC
:1009FE007AFF027EFF0282FF0286FF028AFF028ECC
:100A0E00FF0292FF0296FF029AFF029EFF02A2FFD2
:100A1E0002A6FF02AAFF02AEFF02B2FF02B6FF025B
:100A2E00BAFF02BEFF02C2FF02C6FF02CAFF02CE1B
:100A3E00FF02D2FF02D6FF02DAFF02DEFF02E2FF62
:100A4E0002E6FF02EAFF02EEFF02F2FF02F6FF02EB
:100A5E00FAFF02FEFF0302FF0306FF030AFF030E67
:100A6E00FF0312FF0316FF031AFF031EFF0322FFED
:100A7E000326FF032AFF032EFF0332FF0336FF0375
:100A8E003AFF033EFF0342FF0346FF034AFF034EB6
:100A9E00FF0352FF0356FF035AFF035EFF0362FF7D
:100AAE000366FF036AFF036EFF0372FF0376FF0305
:100ABE007AFF037EFF0382FF0386FF038AFF038E06
:100ACE00FF0392FF0396FF039AFF039EFF03A2FF0D
:100ADE0003A6FF03AAFF03AEFF03B2FF03B6FF0395
:040AEE00BAFF03BE8A
:100CD70078127C037D017BFF7A0479097E007F808F
:100CE700120BC39003927464F0A37428F0A3740AE0
:100CF700F0A37404F0A374D2F090039A7401F0A3E4
:100D07007459F090031174F1F0E4900310F090031C
:100D170010E0FFC39407501FA3E0F8E6FE74052F09
:100D2700F582E43403F583EEF0900311E004F090CC
:100D37000310E004F080D7900000120C210000009F
:100D47000090031174F8F0900311E0D394FB504224
:100D5700900000E0FCA3E0FDA3E0FEA3E0FF78081D
:100D6700120C02C004A905AA06AB07900311E0F80C
:100D7700E6FFE4FCFDFED000EB2FFFEE3AFEED3977
:100D8700FDEC38FC900000120C15900311E004F004
:100D970080B590030C120C21000000009003117421
:100DA700FCF0900311E0D39400404290030CE0FC68
:100DB700A3E0FDA3E0FEA3E0FF7808120C02C00445
:100DC700A905AA06AB07900311E0F8E6FFE4FCFDCE
:100DD700FED000EB2FFFEE3AFEED39FDEC38FC902C
:100DE700030C120C15900311E004F080B5120F34B8
:100DF7007BFF7A0379C2120F4FE4900310F0900340
:100E070010E0FFC394FF507190039F74FFF0A37429
:100E170003F0A374F0F0900392E0FD9003A2E4F0D6
:100E2700A3EDF0900393E0FD9003A4E4F0A3EDF0AD
:100E370075F003EFA42405F582E5F03400F583E0AF
:100E4700F9A3E0FAA3E09003A6C9F0A3EAF0A3E9A7
:100E5700F07B017A0379121204EE7B017A0379128F
:100E6700120F4FE4FFFE0FBF00010EBE3EF8BF801A
:090E7700F5900310E004F0808501
:010E8000224F
:100F6200EF540FFFD39409EF50042430FF222437AB
:020F7200FF225C
:0A0F7400C2098F993009FDC209225D
:100F4F00120BE9FF600C120F74740129F9E43AFADD
:030F5F0080EE22FF
:100F3400438780759850E58954CF4420F589438EC2
:0B0F440040758DFAD28ED2ACD2AF22E5
:03002300020003D5
:10000300C0E0C083C082309808C298900004E5998C
:0F001300F0309904C299D209D082D083D0E03264
:03000000020E816C
:0C0E8100787FE4F6D8FD758121020EC8D0
:100AF300E709F608DFFA8046E709F208DFFA803EE5
:100B030088828C83E709F0A3DFFA8032E309F608D1
:100B1300DFFA8078E309F208DFFA807088828C8339
:100B2300E309F0A3DFFA806489828A83E0A3F608ED
:100B3300DFFA805889828A83E0A3F208DFFA804CC7
:100B430080D280FA80C680D4806980F2803380109E
:100B530080A680EA809A80A880DA80E280CA803307
:100B630089828A83ECFAE493A3C8C582C8CCC5837F
:100B7300CCF0A3C8C582C8CCC583CCDFE9DEE7804F
:100B83000D89828A83E493A3F608DFF9ECFAA9F0CE
:100B9300EDFB2289828A83ECFAE0A3C8C582C8CC24
:100BA300C583CCF0A3C8C582C8CCC583CCDFEADE3D
:100BB300E880DB89828A83E493A3F208DFF980CC9F
:100BC30088F0EF60010E4E60C388F0ED2402B40498
:100BD3000050B9F582EB2402B4040050AF2323453F
:060BE3008223900B437316
:100BE900BB010689828A83E0225002E722BBFE020A
:090BF900E32289828A83E493223D
:100C0200E8600FEFC333FFEE33FEED33FDEC33FC50
:030C1200D8F122F4
:0C0C1500ECF0A3EDF0A3EEF0A3EFF02252
:100C2100A8828583F0D083D082120C38120C38123E
:100C31000C38120C38E473E493A3C583C5F0C58363
:100C4100C8C582C8F0A3C583C5F0C583C8C582C81D
:010C51002280
:10048900E508249FF582E43403F583E0050822900A
:10049900039C30070390039FE475F001120C91024D
:1004A9000BE92000E97F2ED2008018EF540F249029
:1004B900D43440D4FF30040BEF24BFB41A005003E6
:1004C9002461FFE50960021509050CE50C700205B8
:1004D9000B30070E90039CE475F001120C91EF02AA
:1004E9000C7F020F0D7403D2078003E4C207F508DD
:1004F90090039C120CA8E4F509F50BF50CE50960CD
:10050900077F201204CC80F5750AFFC201C200C220
:1005190002C203C205C206C208120498FF700D3058
:1005290007057F001204DDAF0CAE0B22B4255FC2B4
:10053900D5C204120498FF24D0B40A00501A75F0E9
:100549000A780930D50508B6FF0106C6A426F620A3
:10055900D5047002D20380D924CFB41A00EF500415
:10056900C2E5D2040206DED20180C6D20080C0D222
:100579000280BCD2D580BAD20580B47F201204CCC7
:100589002002077401B5090040F1120489FF120421
:10059900CC020506D208D2068095120489FB120402
:1005A90089FA120489F94A4B700679AF7A077BFFF9
:1005B90020022EE509602A7E008E82758300120CC6
:1005C9005260060EEE650A70F0C2D5EBC0E0EAC0D3
:1005D900E0E9C0E0EE120725D0E0F9D0E0FAD0E07A
:1005E900FB120BE9FF60AAEBC0E0EAC0E0E9C0E05A
:1005F9001204CCD0E02401F9D0E03400FAD0E0FBB9
:10060900E50A0460DCD50AD980877BFF7A0779215E
:10061900D202809C791080027908C206C20880083B
:10062900D2D5790A8004790AC2D5E50A047002F59F
:100639000AE4FAFDFEFF120489FC7B08200113126B
:100649000489FD7B1030000A120489FE120489FF17
:100659007B20EC3382D592D55013C3E43000069F3A
:10066900FFE49EFEE42001039DFDE49CFCE4CBF83D
:10067900C201EC700CCFCECDCCE824F8F870F38031
:1006890017C3EF33FFEE33FEED33FDEC33FCEB33F1
:10069900FB994002FB0FD8E9EB300105F8D0E0C423
:1006A90048B201C0E00AEC4D4E4F78207B0070C281
:1006B900EAB50A0040BCC0E0120727D0F0D0E0201C
:1006C9000104C4C0E0C4B201C0F01204B5D0F0D531
:1006D900F0EB020506120CB105A353061D5805746B
:1006E9004C05704206214F062944062949058943CC
:0806F900062F550613460613F7
:100701004506134707CF5005782D057C2E059F2BF5
:10071100058023059D2007B82A0538480000059764
:100721003F3F3F00790AA2D5200314300509B910D3
:10073100020404B9080104A2D520060250010420D4
:1007410002689202B509005034C0E07F20300319DD
:100751007F30A20272067205500F12077EC202C2DA
:1007610006C205C2087F30800F300503E9C0E012E0
:1007710004CC300503D0E0F9D0E0B509CC30051741
:100781007F30B9100C1204CC7F583004077F788079
:1007910003B908031204CC3002057F2D0204CC7F7B
:1007A100202008F87F2B2006F322920280CF286EAA
:1007B100756C6C2900D2011204893001F8C20178EC
:1007C1000930D50108F60205382D50434958120465
:1007D100892403B405004001E49007CA931204BDC3
:0D07E100743A1204BDD20375090402061D0E
:100E8D00020CD7E493A3F8E493A34003F68001F298
:100E9D0008DFF48029E493A3F85407240CC8C33366
:100EAD00C4540F4420C8834004F456800146F6DF35
:100EBD00E4800B01020408102040809007EEE47ED0
:100ECD00019360BCA3FF543F30E509541FFEE4932A
:100EDD00A360010ECF54C025E060A840B8E493A3F1
:100EED00FAE493A3F8E493A3C8C582C8CAC583CA1C
:100EFD00F0A3C8C582C8CAC583CADFE9DEE780BED4
:010AF2000003
:100C5200BB010CE58229F582E5833AF583E0225057
:100C620006E92582F8E622BBFE06E92582F8E222A1
:0D0C7200E58229F582E5833AF583E49322BB
:100C7F00BB010689828A83F0225002F722BBFE0154
:020C8F00F3224E
:100C9100F8E0FBA3A3E0F925F0F0E58215827002EC
:070CA1001583E0FA38F02290
:090CA800EBF0A3EAF0A3E9F0224D
:100CB100D083D082F8E4937012740193700DA3A3D2
:100CC10093F8740193F5828883E4737402936860E6
:060CD100EFA3A3A380DFE6
:100F0D00EFB40A07740D120F18740A309811A899CE
:100F1D00B8130CC2983098FDA899C298B811F63044
:070F2D0099FDC299F599221C
:00000001FF
